:020000040800F2
:10000000000001206551000861CD000869CD00089D
:10001000F5CD0008FDCD000855CE00080000000019
:10002000000000000000000000000000C17800088F
:10003000B5CE000800000000C97A0008E5570008A6
:10004000B5510008B5510008B5510008B551000878
:10005000B5510008B5510008B5510008B551000868
:10006000B5510008B5510008B5510008B551000858
:10007000B5510008B5510008B5510008B551000848
:10008000B5510008B5510008B55100080000000046
:10009000000000000000000000000000B551000852
:1000A000B5510008B5510008B5510008B551000818
:1000B000B5510008B5510008B5510008B551000808
:1000C000B5510008B5510008B5510008B5510008F8
:1000D000B5510008B5510008B551000800000000F6
:1000E000B5510008B5510008B551000800000000E6
:1000F000000000000000000000000000B5510008F2
:1001000000000000B5510008B5510008B5510008C5
:1001100000000000000000000000000000000000DF
:10012000B5510008B5510008B5510008B551000897
:10013000B5510008000000000000000000000000B1
:10014000000000000000000000000000F55700085B
:10015000B5510008B5510008B5510008B551000867
:10016000B5510008B5510008000000000000000073
:10017000000000000000000000000000000000007F
:1001800000000000B5510008000000000000000061
:04019000B55100085D
:1001A000044B05481B1A062B02D9044B03B1184710
:1001B000704700BF0F0200200C020020000000006A
:1001C00005490648091A891001EBD171491002D07E
:1001D000034B03B1184770470C0200200C020020AB
:1001E0000000000010B5064C237843B9FFF7D8FF94
:1001F000044B13B10448AFF300800123237010BDFA
:100200000C0200200000000048CD000808B5084B93
:100210001BB108490848AFF300800848036813B9C8
:10022000BDE80840CCE7064B002BF9D09847F7E72C
:10023000000000001002002048CD00080C02002041
:1002400000000000034613F8012B002AFBD1181A06
:1002500001387047000000000000000000000000AE
:1002600001F0FF01102A2BDB10F0070F08D010F867
:10027000013B013A8B422DD010F0070F42B3F6D16B
:10028000F0B441EA012141EA014122F007047FF084
:1002900000070023F0E80256083C85EA010586EADB
:1002A000010685FA47F5A3FA87F586FA47F6A5FA17
:1002B00087F68EB9EED1F0BC01F0FF0102F0070223
:1002C00032B110F8013B013A83EA010313B1F8D1CE
:1002D0000020704701387047002D06BF35460338AF
:1002E000073815F0010F07D1013015F4807F02BFE8
:1002F000013015F4C03F0130F0BC0138704700BF39
:1003000081F0004102E000BF83F0004330B54FEAC6
:1003100041044FEA430594EA050F08BF90EA020F33
:100320001FBF54EA000C55EA020C7FEA645C7FEAC6
:10033000655C00F0E2804FEA5454D4EB5555B8BFE9
:100340006D420CDD2C4480EA020281EA030382EA5A
:10035000000083EA010180EA020281EA0303362DEC
:1003600088BF30BD11F0004F4FEA01314FF4801CBF
:100370004CEA113102D0404261EB410113F0004FD1
:100380004FEA03334CEA133302D0524263EB430388
:1003900094EA050F00F0A780A4F10104D5F1200E26
:1003A0000DDB02FA0EFC22FA05F2801841F1000181
:1003B00003FA0EF2801843FA05F359410EE0A5F155
:1003C00020050EF1200E012A03FA0EFC28BF4CF086
:1003D000020C43FA05F3C01851EBE37101F000453C
:1003E00007D54FF0000EDCF1000C7EEB00006EEB49
:1003F0000101B1F5801F1BD3B1F5001F0CD34908D3
:100400005FEA30004FEA3C0C04F101044FEA445229
:1004100012F5800F80F09A80BCF1004F08BF5FEAB0
:10042000500C50F1000041EB045141EA050130BD90
:100430005FEA4C0C404141EB010111F4801FA4F133
:100440000104E9D191F0000F04BF01460020B1FA88
:1004500081F308BF2033A3F10B03B3F120020CDAC0
:100460000C3208DD02F1140CC2F10C0201FA0CF09E
:1004700021FA02F10CE002F11402D8BFC2F1200C03
:1004800001FA02F120FA0CFCDCBF41EA0C019040B9
:10049000E41AA2BF01EB0451294330BD6FEA040402
:1004A0001F3C1CDA0C340EDC04F11404C4F12002ED
:1004B00020FA04F001FA02F340EA030021FA04F3FF
:1004C00045EA030130BDC4F10C04C4F1200220FA56
:1004D00002F001FA04F340EA0300294630BD21FA94
:1004E00004F0294630BD94F0000F83F4801306BF5A
:1004F00081F480110134013D4EE77FEA645C18BF4E
:100500007FEA655C29D094EA050F08BF90EA020FE4
:1005100005D054EA000C04BF1946104630BD91EADC
:10052000030F1EBF0021002030BD5FEA545C05D1DF
:100530004000494128BF41F0004130BD14F580041E
:100540003CBF01F5801130BD01F0004545F0FE4192
:1005500041F470014FF0000030BD7FEA645C1ABFC7
:10056000194610467FEA655C1CBF0B46024650EAFE
:10057000013406BF52EA033591EA030F41F400212A
:1005800030BD00BF90F0000F04BF0021704730B5B0
:100590004FF4806404F132044FF000054FF0000185
:1005A00050E700BF90F0000F04BF0021704730B546
:1005B0004FF4806404F1320410F0004548BF40421B
:1005C0004FF000013EE700BF42004FEAE2014FEA70
:1005D00031014FEA02701FBF12F07F4393F07F4F4B
:1005E00081F06051704792F0000F14BF93F07F4F7D
:1005F000704730B54FF4607401F0004521F00041C0
:1006000020E700BF50EA010208BF704730B54FF045
:1006100000050AE050EA010208BF704730B511F04A
:10062000004502D5404261EB41014FF4806404F182
:1006300032045FEA915C3FF4DCAE4FF003025FEA04
:10064000DC0C18BF03325FEADC0C18BF033202EB8C
:10065000DC02C2F1200300FA03FC20FA02F001FAE6
:1006600003FE40EA0E0021FA02F11444C1E600BF85
:1006700070B54FF0FF0C4CF4E06C1CEA11541DBF38
:100680001CEA135594EA0C0F95EA0C0F00F0DEF803
:100690002C4481EA030621EA4C5123EA4C5350EAE8
:1006A000013518BF52EA033541F4801143F4801339
:1006B00038D0A0FB02CE4FF00005E1FB02E506F0CA
:1006C0000042E0FB03E54FF00006E1FB03569CF01F
:1006D000000F18BF4EF0010EA4F1FF04B6F5007F25
:1006E00064F5407404D25FEA4E0E6D4146EB060697
:1006F00042EAC62141EA55514FEAC52040EA5E5020
:100700004FEACE2EB4F1FD0C88BFBCF5E06F1ED8C9
:10071000BEF1004F08BF5FEA500E50F1000041EB00
:10072000045170BD06F0004646EA010140EA0200AD
:1007300081EA0301B4EB5C04C2BFD4EB0C0541EACF
:10074000045170BD41F480114FF0000E013C00F3E4
:10075000AB8014F1360FDEBF002001F0004170BD08
:10076000C4F10004203C35DA0C341BDC04F1140421
:10077000C4F1200500FA05F320FA04F001FA05F2AD
:1007800040EA020001F0004221F0004110EBD3707A
:1007900021FA04F642EB06015EEA430E08BF20EAA6
:1007A000D37070BDC4F10C04C4F1200500FA04F349
:1007B00020FA05F001FA04F240EA020001F00041DB
:1007C00010EBD37041F100015EEA430E08BF20EA4E
:1007D000D37070BDC4F1200500FA05F24EEA020E96
:1007E00020FA04F301FA05F243EA020321FA04F0C5
:1007F00001F0004121FA04F220EA020000EBD3707C
:100800005EEA430E08BF20EAD37070BD94F0000F7B
:100810000FD101F00046400041EB010111F4801FAF
:1008200008BF013CF7D041EA060195F0000F18BF60
:10083000704703F00046520043EB030313F4801F9C
:1008400008BF013DF7D043EA0603704794EA0C0F56
:100850000CEA135518BF95EA0C0F0CD050EA41066C
:1008600018BF52EA4306D1D181EA030101F00041E9
:100870004FF0000070BD50EA410606BF1046194611
:1008800052EA430619D094EA0C0F02D150EA01361D
:1008900013D195EA0C0F05D152EA03361CBF10465E
:1008A00019460AD181EA030101F0004141F0FE41FD
:1008B00041F470014FF0000070BD41F0FE4141F481
:1008C000780170BD70B54FF0FF0C4CF4E06C1CEA81
:1008D00011541DBF1CEA135594EA0C0F95EA0C0F36
:1008E00000F0A7F8A4EB050481EA030E52EA0335F1
:1008F0004FEA013100F088804FEA03334FF0805512
:1009000045EA131343EA12634FEA022245EA11153E
:1009100045EA10654FEA00260EF000419D4208BFEF
:10092000964244F1FD0404F5407402D25B084FEA9C
:100930003202B61A65EB03055B084FEA32024FF448
:1009400080104FF4002CB6EB020E75EB030E22BFA5
:10095000B61A754640EA0C005B084FEA3202B6EB65
:10096000020E75EB030E22BFB61A754640EA5C0014
:100970005B084FEA3202B6EB020E75EB030E22BFA4
:10098000B61A754640EA9C005B084FEA3202B6EBA5
:10099000020E75EB030E22BFB61A754640EADC0064
:1009A00055EA060E18D04FEA051545EA16754FEAC6
:1009B00006164FEAC30343EA52734FEAC2025FEAE4
:1009C0001C1CC0D111F4801F0BD141EA00014FF073
:1009D00000004FF0004CB6E711F4801F04BF014344
:1009E0000020B4F1FD0C88BFBCF5E06F3FF6AFAE60
:1009F000B5EB030C04BFB6EB020C5FEA500C50F1F0
:100A0000000041EB045170BD0EF0004E4EEA113172
:100A100014EB5C04C2BFD4EB0C0541EA045170BD79
:100A200041F480114FF0000E013C90E645EA060EBD
:100A30008DE60CEA135594EA0C0F08BF95EA0C0FEB
:100A40003FF43BAF94EA0C0F0AD150EA01347FF433
:100A500034AF95EA0C0F7FF425AF104619462CE70A
:100A600095EA0C0F06D152EA03353FF4FDAE10466D
:100A7000194622E750EA410618BF52EA43067FF4BE
:100A8000C5AE50EA41047FF40DAF52EA43057FF44E
:100A9000EBAE12E74FF0FF3C06E000BF4FF0010C59
:100AA00002E000BF4FF0010C4DF804CD4FEA410CBD
:100AB0007FEA6C5C4FEA430C18BF7FEA6C5C1BD08A
:100AC00001B050EA410C0CBF52EA430C91EA030F0B
:100AD00002BF90EA020F0020704710F1000F91EA68
:100AE000030F58BF994208BF90422CBFD8176FEA36
:100AF000E37040F0010070474FEA410C7FEA6C5C04
:100B000002D150EA013C07D14FEA430C7FEA6C5C0A
:100B1000D6D152EA033CD3D05DF8040B704700BF36
:100B20008446104662468C461946634600E000BF84
:100B300001B5FFF7B7FF002848BF10F1000F01BD56
:100B40004DF808EDFFF7F4FF0CBF012000205DF821
:100B500008FB00BF4DF808EDFFF7EAFF34BF0120A6
:100B600000205DF808FB00BF4DF808EDFFF7E0FF3F
:100B700094BF012000205DF808FB00BF4DF808ED90
:100B8000FFF7CEFF94BF012000205DF808FB00BFF7
:100B90004DF808EDFFF7C4FF34BF012000205DF8D9
:100BA00008FB00BF4FEA410212F5001215D211D521
:100BB0006FF47873B3EB625212D94FEAC12343F05A
:100BC000004343EA505311F0004F23FA02F018BFDC
:100BD000404270474FF00000704750EA013005D1A5
:100BE00011F0004008BF6FF0004070474FF0000068
:100BF000704700BF4A0011D212F5001211D20DD574
:100C00006FF47873B3EB62520ED44FEAC12343F012
:100C1000004343EA505323FA02F070474FF00000BC
:100C2000704750EA013002D14FF0FF3070474FF06B
:100C3000000070474FEA4102B2F1E04324BFB3F530
:100C4000001CDCF1FE5C0DD901F0004C4FEAC00243
:100C50004CEA5070B2F1004F40EB830008BF20F027
:100C60000100704711F0804F21D113F13872BCBFE1
:100C700001F00040704741F480114FEA5252C2F136
:100C80001802C2F1200C10FA0CF320FA02F018BF7F
:100C900040F001004FEAC1234FEAD32303FA0CFCD2
:100CA00040EA0C0023FA02F34FEA4303CCE77FEA61
:100CB000625307D150EA01331EBF4FF0FE4040F4AB
:100CC0004000704701F0004040F0FE4040F400005A
:100CD000704700BF80B500AF0E4A0E4B1B6843F44F
:100CE000007313600B4A0B4B1B6843F48063136063
:100CF000084A084B1B6843F480731360032000F01C
:100D000079FE002000F008F804F030FD00231846BA
:100D100080BD00BF003C024080B582B000AF78606B
:100D200002F0D2FE0246094BA3FB02239B091846A0
:100D300000F0C4FE002279684FF0FF3000F07AFE28
:100D4000002318460837BD4680BD00BFD34D621052
:100D500080B400AF044B1B680133034A136000BF2B
:100D6000BD465DF8047B70470C2B002080B400AFBB
:100D7000034B1B681846BD465DF8047B704700BFF7
:100D80000C2B002080B584B000AF78600023FB609E
:100D9000FFF7ECFFF86000BFFFF7E8FF0246FB68D3
:100DA000D21A7B689A42F7D300BF1037BD4680BD88
:100DB00080B584B000AF78600023FB737B68002BA4
:100DC00001D1012343E17B681B68A34A934204D00D
:100DD00040F20D11A14804F0BDFC7B685B68002B5C
:100DE00013D07B685B68B3F5803F0ED07B685B688F
:100DF000B3F5003F09D07B685B68B3F5403F04D092
:100E00004FF48771954804F0A5FC7B689B68002B24
:100E100013D07B689B68B3F1807F0ED07B689B68A2
:100E2000B3F1007F09D07B689B68B3F1407F04D0A9
:100E300040F20F11894804F08DFC7B681B69002B80
:100E400008D07B681B69012B04D04FF4887183485C
:100E500004F080FC7B689B69002B08D07B689B6951
:100E6000012B04D040F211117C4804F073FC7B6824
:100E70009B6A002B54D07B689B6AB3F1807F4FD074
:100E80007B689B6AB3F1007F4AD07B689B6AB3F1B1
:100E9000407F45D07B689B6AB3F1806F40D07B6810
:100EA0009B6AB3F1A06F3BD07B689B6AB3F1C06FC4
:100EB00036D07B689B6AB3F1E06F31D07B689B6A68
:100EC000B3F1006F2CD07B689B6AB3F1106F27D011
:100ED0007B689B6AB3F1206F22D07B689B6AB3F179
:100EE000306F1DD07B689B6AB3F1406F18D07B6870
:100EF0009B6AB3F1506F13D07B689B6AB3F1606F4C
:100F00000ED07B689B6AB3F1706F09D07B689B6AD7
:100F1000534A934204D04FF48971504804F01AFCAC
:100F20007B68DB68002B09D07B68DB68B3F5006F5A
:100F300004D040F21311494804F00CFC7B68DB69D3
:100F4000002B03D07B68DB69102B04D94FF48A7126
:100F5000424804F0FFFB7B681B6B002B08D07B68CA
:100F60001B6B012B04D040F215113C4804F0F2FB3E
:100F70007B685B69012B0CD07B685B69002B08D018
:100F80007B685B69022B04D04FF48B71334804F00B
:100F9000E1FB7B681B6A002B08D07B681B6A012B76
:100FA00004D040F217112D4804F0D4FB7B689B6AF3
:100FB0002B4A934217D07B68DB6A002B13D07B68E7
:100FC000DB6AB3F1805F0ED07B68DB6AB3F1005F50
:100FD00009D07B68DB6AB3F1405F04D040F21B119B
:100FE0001E4804F0B7FB7B681B6C002B09D17B68A3
:100FF00000225A647B68002283F83C20786804F061
:10100000C3FB7B681B6C03F01003002B18D17B68BB
:101010001B6C23F4885323F0020343F002027B6825
:101020001A64786800F00CFB7B6800225A647B68C5
:101030001B6C23F0030343F001027B681A6401E098
:101040000123FB737B68002283F83C20FB7B18465E
:101050001037BD4680BD00BF00200140E0CE000833
:101060000100000F80B584B000AF78600023FB6002
:101070007B689B69002B08D07B689B69012B04D09F
:101080004FF4DD71564804F065FB7B68DB6A002B8A
:1010900013D07B68DB6AB3F1805F0ED07B68DB6ABC
:1010A000B3F1005F09D07B68DB6AB3F1405F04D025
:1010B00040F2BB114A4804F04DFB7B6893F83C308A
:1010C000012B01D1022387E07B68012283F83C20B9
:1010D0007B681B689B6803F00103002B18D17B68B9
:1010E0001B687A681268926842F001029A603D4B70
:1010F0001B683D4AA2FB03239A0C13465B00134472
:10110000FB6002E0FB68013BFB60FB68002BF9D150
:101110007B681B689B6803F00103002B5BD07B6836
:101120001B6C23F4E06323F0010343F480727B68BB
:101130001A647B681B685B6803F48063002B07D02C
:101140007B681B6C23F4405343F480527B681A6421
:101150007B681B6C03F48053002B06D07B685B6CB0
:1011600023F006027B685A6402E07B6800225A641E
:101170007B68002283F83C207B681B686FF00202CA
:101180001A601A4B5B6803F01F03002B0FD17B68BA
:101190001B689B6803F04053002B1CD17B681B68C5
:1011A0007A681268926842F080429A6013E07B6825
:1011B0001B680F4A93420ED17B681B689B6803F043
:1011C0004053002B07D17B681B687A6812689268CD
:1011D00042F080429A60002318461037BD4680BD19
:1011E000E0CE00080000002083DE1B430023014006
:1011F0000020014080B582B000AF78607B681B683A
:101200001A4A934204D040F21D21194804F0A2FA70
:101210007B6893F83C30012B01D1022321E07B68ED
:10122000012283F83C207B681B687A681268926808
:1012300022F001029A607B681B689B6803F001033F
:10124000002B09D17B681B6C23F4885323F0010326
:1012500043F001027B681A647B68002283F83C201B
:10126000002318460837BD4680BD00BF002001405E
:10127000E0CE000880B584B000AF7860396000230C
:10128000FB607B681B689B6803F48063002B12D0B3
:101290007B681B689B6803F48073002B0BD07B6812
:1012A0001B6C43F020027B681A647B68002283F881
:1012B0003C2001235CE0FFF759FDF8601AE03B6831
:1012C000B3F1FF3F16D03B68002B07D0FFF74EFD70
:1012D0000246FB68D21A3B689A420BD97B681B6CAA
:1012E00043F004027B681A647B68002283F83C2088
:1012F00003233DE07B681B681B6803F00203002B9F
:10130000DDD07B681B686FF012021A607B681B6C73
:1013100043F400727B681A647B681B689B6803F067
:101320004053002B23D17B689B69002B1FD17B6826
:101330001B68DB6A03F47003002B06D07B681B6814
:101340009B6803F48063002B11D17B681B6C23F432
:1013500080727B681A647B681B6C03F48053002BDB
:1013600005D17B681B6C43F001027B681A64002383
:1013700018461037BD4680BD80B483B000AF78609A
:101380007B681B68DB6C18460C37BD465DF8047B38
:10139000704700BF90B585B000AF7860396000231A
:1013A000FB603B681B68122B04D940F2FE419F484A
:1013B00004F0D0F93B685B68002B03D03B685B68A6
:1013C000102B04D940F2FF41984804F0C3F93B6860
:1013D0009B68002B20D03B689B68012B1CD03B688E
:1013E0009B68022B18D03B689B68032B14D03B688A
:1013F0009B68042B10D03B689B68052B0CD03B6886
:101400009B68062B08D03B689B68072B04D04FF4E1
:10141000A061864804F09EF97B6893F83C30012B6C
:1014200001D10223FEE07B68012283F83C203B6867
:101430001B68092B24D97B6819687B681B68D868EE
:101440003B681B689AB213465B0013441E3B07229D
:1014500002FA03F3DB430340CB607B6819687B68C7
:101460001B68D8683B689C683B681B689AB2134647
:101470005B0013441E3B04FA03F30343CB6021E0FB
:101480007B6819687B681B6818693B681B689AB29F
:1014900013465B001344072202FA03F3DB430340C5
:1014A0000B617B6819687B681B6818693B689C68DE
:1014B0003B681B689AB213465B00134404FA03F3BB
:1014C00003430B613B685B68062B23D87B68196874
:1014D0007B681B68586B3B685A6813469B00134433
:1014E000053B1F2202FA03F3DB4303404B637B6897
:1014F00019687B681B68586B3B681B689CB23B682B
:101500005A6813469B001344053B04FA03F3034354
:101510004B634AE03B685B680C2B23D87B681968F7
:101520007B681B68186B3B685A6813469B00134422
:10153000233B1F2202FA03F3DB4303400B637B6868
:1015400019687B681B68186B3B681B689CB23B681A
:101550005A6813469B001344233B04FA03F30343E6
:101560000B6322E07B6819687B681B68D86A3B685C
:101570005A6813469B001344413B1F2202FA03F3AF
:10158000DB430340CB627B6819687B681B68D86AC1
:101590003B681B689CB23B685A6813469B00134427
:1015A000413B04FA03F30343CB627B681B68204A88
:1015B000934209D13B681B68122B05D11D4A1D4B74
:1015C0005B6843F4800353607B681B68184A93424E
:1015D00023D13B681B68102B03D03B681B68112B81
:1015E0001BD1144A134B5B6843F4000353603B6800
:1015F0001B68102B11D1104B1B68104AA2FB032350
:101600009A0C13469B0013445B00FB6002E0FB68EE
:10161000013BFB60FB68002BF9D17B68002283F85B
:101620003C20002318461437BD4690BDE0CE00088C
:1016300000200140002301400000002083DE1B4306
:1016400080B584B000AF7860824A824B5B6823F437
:10165000403353607F497F4B5A687B685B68134314
:101660004B607B681B687A681268526822F480724B
:101670005A607B681B687A68126851687A681269D8
:1016800012020A435A607B681B687A6812685268C3
:1016900022F040725A607B681B687A681268516851
:1016A0007A6892680A435A607B681B687A68126895
:1016B000926822F400629A607B681B687A681268FC
:1016C00091687A68D2680A439A607B689B6A624A2A
:1016D000934222D07B681B687A681268926822F075
:1016E00070629A607B681B687A68126891687A6891
:1016F000926A0A439A607B681B687A6812689268EB
:1017000022F040529A607B681B687A681268916880
:101710007A68D26A0A439A600FE07B681B687A682D
:101720001268926822F070629A607B681B687A681F
:101730001268926822F040529A607B681B687A684F
:101740001268926822F002029A607B681B687A68CD
:10175000126891687A68926952000A439A607B68BD
:101760001B6A002B32D07B685B6A002B03D07B683E
:101770005B6A082B04D940F20461384803F0EAFFA1
:101780007B681B687A681268526842F400625A608B
:101790007B681B687A681268526822F460425A605B
:1017A0007B685B6A5A1E4FF46043FB60FB6893FAE8
:1017B000A3F3BB60BB68B3FA83F39A407B681B68F2
:1017C0007968096849680A435A6007E07B681B68C2
:1017D0007A681268526822F400625A607B681B685B
:1017E0007A681268D26A22F47002DA627B681B6837
:1017F0007A681268D16A7A68D269013A12050A4396
:10180000DA627B681B687A681268926822F4007258
:101810009A607B681B687A68126891687A68126BB4
:1018200052020A439A607B681B687A681268926861
:1018300022F480629A607B681B687A6812689168FB
:101840007A68526992020A439A6000BF1037BD4617
:1018500080BD00BF002301400100000FE0CE000862
:1018600080B485B000AF78607B6803F00703FB604D
:101870000C4BDB68BB60BA684FF6FF031340BB60DC
:10188000FB681A02BB68134343F0BF6343F40033A1
:10189000BB60044ABB68D36000BF1437BD465DF827
:1018A000047B704700ED00E080B400AF044BDB68C0
:1018B00003F4E0631B0A1846BD465DF8047B7047DD
:1018C00000ED00E080B483B000AF0346FB7109492E
:1018D00097F907305B09FA7902F01F02012000FA3C
:1018E00002F241F8232000BF0C37BD465DF8047BAF
:1018F000704700BF00E100E080B483B000AF034652
:101900003960FB7197F90730002B0BDA0D49FB7931
:1019100003F00F03043B3A68D2B21201D2B20B4477
:101920001A7609E0084997F907303A68D2B21201ED
:10193000D2B20B4483F8002300BF0C37BD465DF8DC
:10194000047B704700ED00E000E100E080B489B066
:1019500000AFF860B9607A60FB6803F00703FB61D1
:10196000FB69C3F10703042B28BF0423BB61FB6998
:101970000433062B02D9FB69033B00E000237B61A3
:101980000122BB6902FA03F35A1EBB681A407B6945
:101990009A4001217B6901FA03F3591E7B680B40D1
:1019A000134318462437BD465DF8047B704700BFDB
:1019B00080B582B000AF78607B68013BB3F1807F77
:1019C00001D301230FE00A4A7B68013B53600F21DA
:1019D0004FF0FF30FFF790FF054B00229A60044B59
:1019E00007221A60002318460837BD4680BD00BF95
:1019F00010E000E080B582B000AF78607B68072B14
:101A00000FD07B68062B0CD07B68052B09D07B6838
:101A1000042B06D07B68032B03D0A421044803F0D9
:101A200099FE7868FFF71CFF00BF0837BD4680BDF0
:101A300010CF000880B586B000AF0346B9607A6069
:101A4000FB7300237B617B680F2B03D9BC210E48FD
:101A500003F080FEBB680F2B03D9BD210A4803F0B9
:101A600079FEFFF721FF78617A68B9687869FFF736
:101A70006DFF024697F90F3011461846FFF73CFFFD
:101A800000BF1837BD4680BD10CF000880B582B0BA
:101A900000AF0346FB7197F90730002B03DAD02122
:101AA000054803F057FE97F907301846FFF70AFF7D
:101AB00000BF0837BD4680BD10CF000880B582B09A
:101AC00000AF78607868FFF773FF03461846083761
:101AD000BD4680BD80B582B000AF78607B68042BC6
:101AE00007D07B68002B04D040F2B3110B4803F001
:101AF00031FE7B68042B06D1094A094B1B6843F071
:101B00000403136005E0064A054B1B6823F0040339
:101B1000136000BF0837BD4680BD00BF10CF00086E
:101B200010E000E080B588B000AF78603960002335
:101B30007B6100233B610023BB617B68384A934291
:101B400017D07B68374A934213D07B68364A93425A
:101B50000FD07B68354A93420BD07B68344A93425E
:101B600007D07B68334A934203D0C521324803F043
:101B7000F1FD3B681B689BB2002B03D1C6212E48A8
:101B800003F0E8FD3B685B68002B35D03B685B6881
:101B9000012B31D03B685B68112B2DD03B685B6813
:101BA000022B29D03B685B68122B25D03B685B6811
:101BB000224A934220D03B685B68214A93421BD063
:101BC0003B685B681F4A934216D03B685B681E4ABD
:101BD000934211D03B685B681C4A93420CD03B682F
:101BE0005B681B4A934207D03B685B68032B03D0BA
:101BF000C721114803F0AEFD3B689B68002B0BD05A
:101C00003B689B68012B07D03B689B68022B03D085
:101C1000C821094803F09EFD0023FB6105E200BFD7
:101C2000000002400004024000080240000C024094
:101C300000100240001C024044CF000800001110B8
:101C400000002110000031100000121000002210CE
:101C5000000032100122FB6902FA03F37B613B684A
:101C60001A687B6913403B613A697B699A4240F08C
:101C7000D9813B685B68022B04D03B685B68122B00
:101C800040F090803B681B69002B67D03B681B6964
:101C9000092B63D03B681B69002B5FD03B681B6935
:101CA000002B5BD03B681B69002B57D03B681B693E
:101CB000002B53D03B681B69012B4FD03B681B693D
:101CC000012B4BD03B681B69022B47D03B681B693B
:101CD000022B43D03B681B69022B3FD03B681B693A
:101CE000042B3BD03B681B69042B37D03B681B6936
:101CF000042B33D03B681B69052B2FD03B681B6935
:101D0000052B2BD03B681B69062B27D03B681B6932
:101D1000052B23D03B681B69072B1FD03B681B6931
:101D2000072B1BD03B681B69082B17D03B681B692E
:101D30000A2B13D03B681B69092B0FD03B681B692A
:101D4000092B0BD03B681B690C2B07D03B681B6928
:101D50000F2B03D0D921794803F0FCFCFB69DA088A
:101D60007B68083253F82230BB61FB6903F007033C
:101D70009B000F2202FA03F3DB43BA691340BB61F5
:101D80003B681A69FB6903F007039B0002FA03F33F
:101D9000BA691343BB61FB69DA087B680832B96929
:101DA00043F822107B681B68BB61FB695B00032260
:101DB00002FA03F3DB43BA691340BB613B685B681B
:101DC00003F00302FB695B0002FA03F3BA691343F1
:101DD000BB617B68BA691A603B685B68012B0BD0FA
:101DE0003B685B68022B07D03B685B68112B03D014
:101DF0003B685B68122B44D13B68DB68002B0FD03B
:101E00003B68DB68012B0BD03B68DB68022B07D0FB
:101E10003B68DB68032B03D0EC21484803F09AFCB5
:101E20007B689B68BB61FB695B00032202FA03F3DA
:101E3000DB43BA691340BB613B68DA68FB695B004E
:101E400002FA03F3BA691343BB617B68BA699A600B
:101E50007B685B68BB610122FB6902FA03F3DB4329
:101E6000BA691340BB613B685B681B0903F0010260
:101E7000FB6902FA03F3BA691343BB617B68BA6971
:101E80005A607B68DB68BB61FB695B00032202FA76
:101E900003F3DB43BA691340BB613B689A68FB6993
:101EA0005B0002FA03F3BA691343BB617B68BA694A
:101EB000DA603B685B6803F08053002B00F0B2806F
:101EC0000023FB601E4A1E4B5B6C43F4804353644B
:101ED0001B4B5B6C03F48043FB60FB68194AFB6996
:101EE0009B08023352F82330BB61FB6903F0030304
:101EF0009B000F2202FA03F3DB43BA691340BB6174
:101F00007B68114A934229D07B68104A934213D0D0
:101F10007B680F4A93420DD07B680E4A934207D0EC
:101F20007B680D4A934201D1042318E0052316E093
:101F3000032314E0022312E0012310E044CF000841
:101F40000038024000380140000002400004024016
:101F500000080240000C0240001002400023FA6911
:101F600002F0030292009340BA691343BB61334904
:101F7000FB699B080233BA6941F82320304B1B6888
:101F8000BB613B69DB43BA691340BB613B685B687B
:101F900003F48033002B03D0BA693B691343BB6160
:101FA000274ABB691360264B5B68BB613B69DB4317
:101FB000BA691340BB613B685B6803F40033002BD4
:101FC00003D0BA693B691343BB611D4ABB695360C7
:101FD0001B4B9B68BB613B69DB43BA691340BB6128
:101FE0003B685B6803F48013002B03D0BA693B693C
:101FF0001343BB61124ABB699360114BDB68BB6141
:102000003B69DB43BA691340BB613B685B6803F41F
:102010000013002B03D0BA693B691343BB61084A24
:10202000BB69D360FB690133FB61FB690F2B7FF652
:1020300011AE00BF2037BD4680BD00BF0038014053
:10204000003C014080B582B000AF78600B467B80D9
:1020500013467B707B88002B04D140F2B1110E48EF
:1020600003F078FB7B78002B07D07B78012B04D022
:102070004FF4D971084803F06DFB7B78002B03D037
:102080007A887B689A6103E07B881A047B689A618E
:1020900000BF0837BD4680BD44CF000880B582B080
:1020A00000AF78600B467B807B88002B04D14FF417
:1020B000E471064803F04EFB7B685A697B885A40FE
:1020C0007B685A6100BF0837BD4680BD44CF000819
:1020D000F0B58FB00AAF78600023FB607B68002BFF
:1020E00001D1012300E17B681B68B3F1A04F03D04D
:1020F00095217F4803F02EFB7B68032283F8812320
:10210000786803F0DFFC7B681B68184601F068FD07
:102110007B681B683B607E686D4606F110040FCC3F
:102120000FC50FCC0FC594E8030085E80300331DED
:102130000ECB386801F0F0FC7B681B680021184664
:1021400001F060FD0023FB604CE07968FA681346FB
:10215000DB009B1A9B000B44393301221A70FB6889
:10216000D8B27968FA681346DB009B1A9B000B44CF
:10217000383302461A70FB6898B27968FA681346D9
:10218000DB009B1A9B000B443E3302461A807968A1
:10219000FA681346DB009B1A9B000B443B3300227A
:1021A0001A707968FA681346DB009B1A9B000B448F
:1021B000403300221A607968FA681346DB009B1AE4
:1021C0009B000B44443300221A607968FA68134676
:1021D000DB009B1A9B000B444C3300221A60FB6807
:1021E0000133FB60FB680E2BAFD90023FB605AE084
:1021F0007968FA681346DB009B1A9B000B4403F2D4
:10220000DD1300221A70FB68D8B27968FA681346A9
:10221000DB009B1A9B000B4403F5EE7302461A7019
:10222000FB6898B27968FA681346DB009B1A9B003A
:102230000B443E3302461A807968FA681346DB0085
:102240009B1A9B000B4403F2DF1300221A7079687B
:10225000FA681346DB009B1A9B000B4403F5F273EC
:1022600000221A607968FA681346DB009B1A9B000B
:102270000B4403F5F47300221A607968FA68134678
:10228000DB009B1A9B000B4403F5F87300221A60D5
:102290007B681A68FB6840339B00134400225A6035
:1022A000FB680133FB60FB680E2BA1D97B681B68C0
:1022B0003B607E686D4606F110040FCC0FC50FCC55
:1022C0000FC594E8030085E80300331D0ECB386882
:1022D00001F0C0FC7B68012283F881237B681B68C6
:1022E000184602F09BFC002318461437BD46F0BD8B
:1022F00074CF000880B582B000AF78607B6893F837
:102300008033012B01D1022312E07B68012283F884
:1023100080237B681B68184602F068FC7B681B689A
:10232000184601F04BFC7B68002283F880230023D1
:1023300018460837BD4680BD80B58AB000AF7860CA
:102340007B681B68BB6100237B6200233B62002328
:102350007B610023FB6100233B610023FB607B6802
:102360001B68184602F0FEFC0346002B40F0AB83CE
:102370007B681B68184602F069FC0346002B00F0DE
:10238000A1837B681B68184602F060FC034603F0DB
:102390000203002B07D07B681B687A6812685269B9
:1023A00002F002025A617B681B68184602F04EFC7C
:1023B000034603F40023002B00F0B2800023FB61EE
:1023C0007B681B68184602F057FC3862A4E03B6A41
:1023D00003F00103002B00F099807B681B68FA6909
:1023E000D2B21146184602F077FC78617B6903F09F
:1023F0000103002B6BD0FB695A01BB69134403F541
:1024000030631A46012393607B681B69012B3CD122
:102410007968FA691346DB009B1A9B000B4403F5AD
:10242000F2731A68FB695901BB690B4403F5306309
:102430001B69C3F31203D11A7868FA691346DB00EB
:102440009B1A9B00034403F5FA7319607968FA69D3
:102450001346DB009B1A9B000B4403F5F4731968C9
:102460007868FA691346DB009B1A9B00034403F566
:10247000F2731B6819447868FA691346DB009B1AEB
:102480009B00034403F5F4731960FB69DBB2194642
:10249000786803F075FB7B681B69012B17D1FB691A
:1024A000002B14D17968FA691346DB009B1A9B0054
:1024B0000B4403F5F8731B68002B08D17B68186880
:1024C0007B6803F561731A46012102F08FFC7B697A
:1024D00003F00803002B0BD0786803F03FFBFB6987
:1024E0005A01BB69134403F530631A46082393600D
:1024F0007B6903F01003002B08D0FB695A01BB690C
:10250000134403F530631A4610239360FB690133CB
:10251000FB613B6A5B083B623B6A002B7FF457AF71
:102520007B681B68184602F091FB034603F4802386
:10253000002B00F0C3807B681B68184602F0B4FBD8
:1025400038620023FB61B5E03B6A03F00103002B16
:1025500000F0AA807B681B68FA69D2B2114618465F
:1025600002F0D6FB78617B6903F00103002B5AD09F
:102570000122FB6902FA03F33B61BB6903F50063C7
:102580001946BB6903F500635A6B3B69DB43134093
:102590004B63FB695A01BB69134403F510631A4688
:1025A000012393607B681B69012B1BD17968FA6951
:1025B0001346DB009B1A9B000B4444331968786870
:1025C000FA691346DB009B1A9B00034440331B68E7
:1025D00019447868FA691346DB009B1A9B00034490
:1025E00044331960FB69DBB21946786803F0E4FAFA
:1025F0007B681B69012B16D1FB69002B13D179680D
:10260000FA691346DB009B1A9B000B444C331B6892
:10261000002B08D17B6818687B6803F561731A4644
:10262000012102F0E3FB7B6903F00803002B08D0D3
:10263000FB695A01BB69134403F510631A4608236A
:1026400093607B6903F01003002B08D0FB695A01EB
:10265000BB69134403F510631A46102393607B692A
:1026600003F04003002B08D0FB695A01BB691344F7
:1026700003F510631A46402393607B6903F002035D
:10268000002B08D0FB695A01BB69134403F51063A2
:102690001A46022393607B6903F08003002B03D06A
:1026A000F969786800F056FCFB690133FB613B6A0D
:1026B0005B083B623B6A002B7FF446AF7B681B687C
:1026C000184602F0C3FA0346002B15DABB6903F57E
:1026D00000631A46BB6903F500635B6823F00103DE
:1026E0005360786803F0E0FA7B681B687A681268C8
:1026F000526902F000425A617B681B68184602F07A
:10270000A5FA034603F40063002B12D0BB6903F55E
:1027100000639B6803F00103002B02D0786803F08C
:102720009BFA7B681B687A681268526902F400623F
:102730005A617B681B68184602F088FA034603F466
:102740008053002B00F09180BB6903F500631A46AB
:10275000BB6903F500635B6823F0010353607B688A
:102760001B680021184601F0A1FB00237B6214E0E6
:102770007B6A5A01BB69134403F510631A46FF23B1
:1027800093607B6A5A01BB69134403F530631A46B0
:10279000FF2393607B6A01337B627B685A687B6AA4
:1027A0009A42E5D8BB6903F500631A464FF0FF3340
:1027B0009361BB6903F500631A46BB6903F50063C7
:1027C000DB6943F00113D3617B681B6B002B18D0CE
:1027D000BB6903F500631A46BB6903F50063D3F8D0
:1027E000843043F00B03C2F88430BB6903F5006307
:1027F0001A46BB6903F500635B6C43F00B0353643B
:1028000015E0BB6903F500631A46BB6903F5006375
:102810005B6943F00B035361BB6903F500631A4620
:10282000BB6903F500631B6943F00B031361BB69CC
:1028300003F500631A46BB6903F500631B6823F4C4
:10284000FE6313607B6818687B681B69D9B27B687C
:1028500003F561731A4602F0C9FA7B681B687A684F
:102860001268526902F480525A617B681B681846EC
:1028700002F0ECF9034603F40053002B3DD07B68D3
:102880001B68184602F07CFA7B681B687A6812683D
:10289000D26822F47052DA607B681B68184601F037
:1028A00065FB0346002B0FD17B680022DA607B6852
:1028B0004FF400725A617B681B687A681268D268AC
:1028C00042F41052DA600DE07B680322DA607B6824
:1028D00040225A617B681B687A681268D26842F4A9
:1028E000A052DA60786803F08FF97B681B687A6819
:1028F0001268526902F400525A617B681B681846DC
:1029000002F0A4F9034603F01003002B61D07B68AA
:102910001B687A681268926922F010029A61BB699A
:102920001B6AFB60FB6803F00F021346DB009B1A77
:102930009B0003F5EC737A6813440433BB60FB68B7
:102940005B0C03F00F03022B24D1FA6847F6F073F7
:102950001340002B35D0BB68D968FB681B099BB2BC
:10296000C3F30A039BB21A46B86902F011F8BB68B8
:10297000DA68FB681B09C3F30A031A44BB68DA6010
:10298000BB689A69FB681B09C3F30A031A44BB6856
:102990009A6116E0FB685B0C03F00F03062B10D165
:1029A0007B6803F5617308221946B86901F0F0FFEE
:1029B000BB689A69FB681B09C3F30A031A44BB6826
:1029C0009A617B681B687A681268926942F010020B
:1029D0009A617B681B68184602F038F9034603F0D9
:1029E0000803002B0AD0786803F000F97B681B68A5
:1029F0007A681268526902F008025A617B681B68A3
:102A0000184602F023F9034603F48013002B0DD07F
:102A1000FB69DBB21946786803F066F97B681B68CE
:102A20007A681268526902F480125A617B681B68E6
:102A3000184602F00BF9034603F40013002B0DD0E7
:102A4000FB69DBB21946786803F03CF97B681B68C8
:102A50007A681268526902F400125A617B681B6836
:102A6000184602F0F3F8034603F08043002B0AD027
:102A7000786803F04BF97B681B687A6812685269C2
:102A800002F080425A617B681B68184602F0DEF84B
:102A9000034603F00403002B15D07B681B685B68BA
:102AA000FB60FB6803F00403002B02D0786803F09E
:102AB0003BF97B681B687A6812685168FA680A43B8
:102AC0005A6000E000BF2837BD4680BD80B582B0A7
:102AD00000AF78600B46FB707B6893F88033012B66
:102AE00001D102230FE07B68012283F880237B68F9
:102AF0001B68FA781146184602F052F87B680022EB
:102B000083F88023002318460837BD4680BD00BFE8
:102B100080B584B000AF7860084611461A46034677
:102B2000FB700B463B801346BB700023FB72FB78A7
:102B30005BB2002B0BDAFB7803F07F021346DB005D
:102B40009B1A9B0038337A681344FB600CE0FB78D7
:102B500003F07F021346DB009B1A9B0003F5EC7326
:102B60007A6813440433FB60FB7803F07F03DAB226
:102B7000FB681A70FB78DB09DBB21A46FB685A70F7
:102B80003A88FB689A60FB68BA78DA70FB685B7811
:102B9000002B04D0FB681B789AB2FB68DA80BB7804
:102BA000022B02D1FB6800221A717B6893F88033F4
:102BB000012B01D102230EE07B68012283F88023E0
:102BC0007B681B68F968184601F006FA7B680022EA
:102BD00083F88023FB7A18461037BD4680BD00BFBE
:102BE00080B584B000AF78600B46FB70FB785BB2B9
:102BF000002B0BDAFB7803F07F021346DB009B1AF5
:102C00009B0038337A681344FB600CE0FB7803F0D8
:102C10007F021346DB009B1A9B0003F5EC737A6876
:102C200013440433FB60FB7803F07F03DAB2FB68E4
:102C30001A70FB78DB09DBB21A46FB685A707B68B6
:102C400093F88033012B01D102230EE07B6801222F
:102C500083F880237B681B68F968184601F046FA00
:102C60007B68002283F88023002318461037BD4676
:102C700080BD00BF80B586B000AFF8607A603B6071
:102C80000B46FB72FB7A03F07F021346DB009B1AB4
:102C90009B0003F5EC73FA68134404337B617B6992
:102CA0007A68DA607B693A685A617B6900229A61C6
:102CB0007B6900225A70FB7A03F07F03DAB27B69EA
:102CC0001A70FB681B69012B02D17A687B691A6153
:102CD000FB6893F88033012B01D1022320E0FB68CD
:102CE000012283F88023FB7A03F07F03002B09D1B4
:102CF000FB681868FB681B69DBB21A46796901F04A
:102D0000B3FC08E0FB681868FB681B69DBB21A4675
:102D1000796901F067FAFB68002283F880230023B9
:102D200018461837BD4680BD80B483B000AF7860C8
:102D30000B46FB70FB7803F07F0279681346DB00DB
:102D40009B1A9B000B4403F5FA731B689BB2184651
:102D50000C37BD465DF8047B704700BF80B586B078
:102D600000AFF8607A603B600B46FB72FB7A03F0C1
:102D70007F021346DB009B1A9B003833FA6813442A
:102D80007B617B697A68DA607B693A685A617B6942
:102D900000229A617B6901225A70FB7A03F07F035B
:102DA000DAB27B691A70FB681B69012B02D17A6861
:102DB0007B691A61FB6893F88033012B01D10223F0
:102DC00020E0FB68012283F88023FB7A03F07F0375
:102DD000002B09D1FB681868FB681B69DBB21A4637
:102DE000796901F041FC08E0FB681868FB681B6921
:102DF000DBB21A46796901F0F5F9FB68002283F825
:102E00008023002318461837BD4680BD80B584B0A6
:102E100000AF78600B46FB70FB785BB2002B0BDADF
:102E2000FB7803F07F021346DB009B1A9B003833CC
:102E30007A681344FB600AE0FA781346DB009B1AB9
:102E40009B0003F5EC737A6813440433FB60FB6862
:102E500001229A70FB7803F07F03DAB2FB681A70E4
:102E6000FB78DB09DBB21A46FB685A707B6893F883
:102E70008033012B01D102231EE07B68012283F8FD
:102E800080237B681B68F968184601F0A9FDFB7870
:102E900003F07F03002B0AD17B6818687B681B69ED
:102EA000D9B27B6803F561731A4601F09FFF7B6816
:102EB000002283F88023002318461037BD4680BDCA
:102EC00080B584B000AF78600B46FB70FB785BB2D6
:102ED000002B0BDAFB7803F07F021346DB009B1A12
:102EE0009B0038337A681344FB600AE0FA78134693
:102EF000DB009B1A9B0003F5EC737A6813440433E0
:102F0000FB60FB6800229A70FB7803F07F03DAB263
:102F1000FB681A70FB78DB09DBB21A46FB685A7053
:102F20007B6893F88033012B01D102230EE07B688C
:102F3000012283F880237B681B68F968184601F03A
:102F4000C1FD7B68002283F88023002318461037D8
:102F5000BD4680BD80B58AB002AF786039607B68BD
:102F60001B687B610023FB6100233B613A681346C9
:102F7000DB009B1A9B0038337A681344FB60FB68C4
:102F80005A69FB689B69D31AFB61FB689A68FB6905
:102F90009A4202D2FB689B68FB61FB6903339B0882
:102FA000BB612BE0FB685A69FB689B69D31AFB6124
:102FB000FB689A68FB699A4202D2FB689B68FB61D6
:102FC000FB6903339B08BB61FB68D9683B68DAB2D5
:102FD000FB6998B27B681B69DBB200930346786992
:102FE00001F0A0FCFB68DA68FB691A44FB68DA6050
:102FF000FB689A69FB691A44FB689A613B685A014D
:103000007B69134403F510639B699AB2BB699A42CA
:1030100009D9FB689A69FB685B699A4203D2FB682D
:103020005B69002BBED1FB69002B10D101223B68EC
:1030300002FA03F33B617B6903F5006319467B6980
:1030400003F500635A6B3B69DB4313404B6300237A
:1030500018462037BD4680BD80B485B000AF78608B
:103060000B46FB7013463B800023FB730023BB60C1
:103070007B681B685B6ABB60FB78002B07D17B68B1
:103080001B683A881104BA680A439A6228E07B6890
:103090001B689B6A1B0CBA681344BB600023FB735C
:1030A0000DE07B681A68FB7B40339B0013445B6830
:1030B0001B0CBA681344BB60FB7B0133FB73FA7BC8
:1030C000FB78013B9A42ECD37B681968FB78013BA3
:1030D0003A881004BA68024340339B000B445A609C
:1030E000002318461437BD465DF8047B704700BFC7
:1030F00080B483B000AF78600B467B807B681B6830
:103100007A885A62002318460C37BD465DF8047B66
:10311000704700BF80B58EB000AF786000237B633E
:103120007B681B680F2B03D9F6219E4802F012FB27
:103130007B681B6803F00103002B5FD07B685B6832
:10314000002B0BD07B685B68012B07D07B685B682A
:10315000052B03D0FB21934802F0FCFA924B9B68AD
:1031600003F00C03042B0BD08F4B9B6803F00C0374
:10317000082B11D18C4B5B6803F48003002B0BD020
:10318000894B1B6803F40033002B36D07B685B68E7
:10319000002B32D1012377E2844A7B685B68DBB283
:1031A00013707B685B68002B13D0FDF7DFFD78633D
:1031B00008E0FDF7DBFD02467B6BD31A642B01D9D7
:1031C000032361E2784B1B6803F40033002BF0D03B
:1031D00014E0FDF7CBFD786308E0FDF7C7FD02467C
:1031E0007B6BD31A642B01D903234DE26E4B1B6812
:1031F00003F40033002BF0D100E000BF7B681B68B4
:1032000003F00203002B00F08E807B68DB68002B4C
:1032100008D07B68DB68012B04D040F22D11614897
:1032200002F098FA7B681B691F2B04D94FF4977141
:103230005C4802F08FFA5C4B9B6803F00C03002B98
:103240000BD0594B9B6803F00C03082B26D1564B2F
:103250005B6803F48003002B20D1534B1B6803F001
:103260000203002B05D07B68DB68012B01D0012312
:103270000AE24D484C4B1B6823F0F8027B68196941
:10328000F8233B623B6A93FAA3F3FB61FB69B3FA51
:1032900083F301FA03F31343036044E07B68DB68C4
:1032A000002B2AD0424B01221A60FDF75FFD7863A4
:1032B00008E0FDF75BFD02467B6BD31A022B01D9B8
:1032C0000323E1E1384B1B6803F00203002BF0D02D
:1032D0003548354B1B6823F0F8027B681969F823E1
:1032E000FB62FB6A93FAA3F3BB61BB69B3FA83F396
:1032F00001FA03F31343036015E02D4B00221A601B
:10330000FDF734FD786308E0FDF730FD02467B6B86
:10331000D31A022B01D90323B6E1234B1B6803F018
:103320000203002BF0D17B681B6803F00803002B1D
:1033300048D07B685B69002B08D07B685B69012BF8
:1033400004D04FF4B771174802F004FA7B685B6948
:10335000002B16D0174B01221A60FDF707FD78638A
:1033600008E0FDF703FD02467B6BD31A022B01D95F
:10337000032389E10C4B5B6F03F00203002BF0D0B9
:1033800020E00C4B00221A60FDF7F0FC786313E09C
:10339000FDF7ECFC02467B6BD31A022B0CD90323FE
:1033A00072E100BFA4CF000800380240023802409A
:1033B00000004742800E4742A94B5B6F03F00203B7
:1033C000002BE5D17B681B6803F00403002B6BD056
:1033D0007B689B68002B0CD07B689B68012B08D016
:1033E0007B689B68052B04D04FF4CC719D4802F09C
:1033F000B1F90023BB609A4A994B1B6C43F0805390
:103400001364974B1B6C03F08053BB60BB68964AF8
:10341000954B1B6843F480731360FDF7A7FC78633A
:1034200008E0FDF7A3FC02467B6BD31A022B01D9FF
:10343000032329E18C4B1B6803F48073002BF0D02D
:103440008A4A7B689B68DBB213707B689B68002BA1
:1034500015D0FDF78BFC78630AE0FDF787FC024688
:103460007B6BD31A41F28832934201D903230BE1DB
:103470007B4B1B6F03F00203002BEED014E0FDF733
:1034800075FC78630AE0FDF771FC02467B6BD31A8A
:1034900041F28832934201D90323F5E0704B1B6F50
:1034A00003F00203002BEED17B689B69002B0CD04C
:1034B0007B689B69012B08D07B689B69022B04D039
:1034C00040F2CD11674802F045F97B689B69002BFB
:1034D00000F0D980624B9B6803F00C03082B00F0CE
:1034E000D0807B689B69022B40F0AA807B68DB69F7
:1034F000002B09D07B68DB69B3F5800F04D04FF453
:10350000EB71584802F026F97B681B6A3F2B04D9FF
:1035100040F2D711534802F01DF97B685B6A312BEA
:1035200004D97B685B6AB3F5D87F04D94FF4EC719A
:103530004C4802F00FF97B689B6A022B10D07B6825
:103540009B6A042B0CD07B689B6A062B08D07B6897
:103550009B6A082B04D040F2D911424802F0FAF8D5
:103560007B68DB6A032B03D97B68DB6A0F2B04D9EA
:103570004FF4ED713B4802F0EDF83D4B00221A602C
:10358000FDF7F4FB786308E0FDF7F0FB02467B6B88
:10359000D31A022B01D9032376E0314B1B6803F0C9
:1035A0000073002BF0D12E487B68DA697B681B6AB8
:1035B0001A437B68596A47F6C073BB62BB6A93FAC9
:1035C000A3F3FB60FB68B3FA83F301FA03F31A4336
:1035D0007B689B6A5B08591E4FF440337B627B6AB1
:1035E00093FAA3F33B613B69B3FA83F301FA03F364
:1035F0001A437B68D96A4FF070633B633B6B93FA65
:10360000A3F37B617B69B3FA83F301FA03F31343FA
:103610004360174B01221A60FDF7A8FB786308E0AE
:10362000FDF7A4FB02467B6BD31A022B01D90323BF
:103630002AE00B4B1B6803F00073002BF0D022E054
:103640000B4B00221A60FDF791FB786312E0FDF747
:103650008DFB02467B6BD31A022B0BD9032313E09D
:1036600000380240A4CF00080070004070380240CB
:1036700060004742064B1B6803F00073002BE6D145
:1036800001E0012300E0002318463837BD4680BD25
:103690000038024080B584B000AF78603960002304
:1036A000FB607B681B68002B03D07B681B680F2BBB
:1036B00004D94FF40E718F4802F04CF83B68002B90
:1036C00019D03B68012B16D03B68022B13D03B6806
:1036D000032B10D03B68042B0DD03B68052B0AD080
:1036E0003B68062B07D03B68072B04D040F23921FA
:1036F000804802F02FF8804B1B6803F00F023B68F4
:103700009A420CD27C4B3A68D2B21A707A4B1B6840
:1037100003F00F023B689A4201D001234DE17B6820
:103720001B6803F00203002B31D07B689B68002BE1
:1037300024D07B689B68802B20D07B689B68902B73
:103740001CD07B689B68A02B18D07B689B68B02B33
:1037500014D07B689B68C02B10D07B689B68D02BF3
:103760000CD07B689B68E02B08D07B689B68F02BB3
:1037700004D04FF414715F4801F0ECFF5F495F4BD8
:103780009B6823F0F0027B689B6813438B607B6827
:103790001B6803F00103002B00F097807B685B68D7
:1037A000002B10D07B685B68012B0CD07B685B68BA
:1037B000022B08D07B685B68032B04D040F25721B2
:1037C0004C4801F0C7FF7B685B68012B07D14B4B6E
:1037D0001B6803F40033002B19D10123EDE07B6853
:1037E0005B68022B03D07B685B68032B07D1434BDC
:1037F0001B6803F00073002B09D10123DDE03F4B70
:103800001B6803F00203002B01D10123D5E03B49E3
:103810003A4B9B6823F003027B685B6813438B6021
:10382000FDF7A4FAF8607B685B68012B12D10AE00F
:10383000FDF79CFA0246FB68D31A41F288329342A4
:1038400001D90323B9E02D4B9B6803F00C03042B33
:10385000EED13AE07B685B68022B12D10AE0FDF7FB
:1038600085FA0246FB68D31A41F28832934201D9A5
:103870000323A2E0214B9B6803F00C03082BEED13D
:1038800023E07B685B68032B19D10AE0FDF76EFA31
:103890000246FB68D31A41F28832934201D90323CE
:1038A0008BE0164B9B68F1E7FDF760FA0246FB6878
:1038B000D31A41F28832934201D903237DE00F4BA2
:1038C0009B6803F00C03002BEED10B4B1B6803F03D
:1038D0000F023B689A4213D9074B3A68D2B21A706A
:1038E000054B1B6803F00F023B689A4208D0012386
:1038F00063E000BFA4CF0008003C02400038024053
:103900007B681B6803F00403002B25D07B68DB6811
:10391000002B18D07B68DB68B3F5805F13D07B6821
:10392000DB68B3F5A05F0ED07B68DB68B3F5C05FE2
:1039300009D07B68DB68B3F5E05F04D040F2B521C5
:10394000204801F007FF20491F4B9B6823F4E052F9
:103950007B68DB6813438B607B681B6803F008039C
:10396000002B26D07B681B69002B18D07B681B6955
:10397000B3F5805F13D07B681B69B3F5A05F0ED0F1
:103980007B681B69B3F5C05F09D07B681B69B3F521
:10399000E05F04D04FF42F710A4801F0DBFE0A49C2
:1039A000094B9B6823F460427B681B69DB0013436F
:1039B0008B600020FDF7B0F9002318461037BD4694
:1039C00080BD00BFA4CF00080038024080B48BB097
:1039D00000AF0023FB6100237B620023BB61002357
:1039E0003B62364B9B6803F00C03042B06D0082B7C
:1039F00007D0002B58D1324B3B6258E0314B3B6231
:103A000055E02E4B5B6803F03F03FB612B4B5B687B
:103A100003F48003002B17D02A4AFB69B2FBF3F2B0
:103A2000264B596847F6C0730B4047F6C071F960E2
:103A3000F96891FAA1F1B960B968B1FA81F1CB40A6
:103A400003FB02F37B6216E01D4AFB69B2FBF3F253
:103A50001A4B596847F6C0730B4047F6C07179613D
:103A6000796991FAA1F179607968B1FA81F1CB4075
:103A700003FB02F37B62114B5B6803F440324FF4AB
:103A800040333B613B6993FAA3F33B603B68B3FA75
:103A900083F322FA03F301335B00BB617A6ABB69EB
:103AA000B2FBF3F33B6202E0054B3B6200BF3B6AB3
:103AB00018462C37BD465DF8047B7047003802403D
:103AC0000024F40000127A0080B582B000AFFFF746
:103AD0007DFF01460D4B9B6803F0F002F0237B60F5
:103AE0007B6893FAA3F33B603B68B3FA83F322FA53
:103AF00003F3074AD35C21FA03F3064A1360054B2C
:103B00001B6818460837BD4680BD00BF003802401C
:103B100008D200080000002084B080B582B000AF59
:103B2000786007F1140080E80E00BB6A012B20D1F9
:103B30007B689B6B23F480327B689A637B68DB68CD
:103B400023F4840323F040037A68D3607B68DB6846
:103B500023F440127B68DA607B6C012B05D17B6813
:103B6000DB6843F480127B68DA60786801F084F9DE
:103B70000CE07B68DB6843F040027B68DA607868C1
:103B800001F07AF97B684FF480329A633B6A012B2B
:103B90000BD17B689B6843F00C027B689A607B6862
:103BA0009B6843F020027B689A6000231846083720
:103BB000BD46BDE8804004B0704700BF80B483B00C
:103BC00000AF78607B689B6843F001027B689A6075
:103BD000002318460C37BD465DF8047B704700BFD4
:103BE00080B483B000AF78607B689B6823F00102EB
:103BF0007B689A60002318460C37BD465DF8047B4D
:103C0000704700BF80B582B000AF78600B46FB7094
:103C10007B68DB6823F0C0427B68DA60FB78012BAD
:103C200006D17B68DB6843F000527B68DA6008E00D
:103C3000FB78002B05D17B68DB6843F080427B6812
:103C4000DA603220FDF79EF8002318460837BD469B
:103C500080BD00BF84B080B584B000AF786007F14C
:103C60001C0080E80E000023FB607B689B6B43F424
:103C700000227B689A637B6C002B05D17B689B6B71
:103C800043F400127B689A637B6803F560631A460D
:103C9000002313607B6803F500631A467B6803F515
:103CA00000631B6813603B6B012B0CD17B6A002BFC
:103CB00004D10021786800F041F908E0012178681A
:103CC00000F03CF903E00321786800F037F9102197
:103CD000786800F0EBF8786800F00EF97B6803F57F
:103CE00000631A46002313617B6803F500631A46DC
:103CF000002353617B6803F500631A464FF0FF33DE
:103D000093617B6803F500631A460023D3610023A7
:103D1000FB6031E0FB685A017B68134403F51063D4
:103D20001B68002B0ADAFB685A017B68134403F511
:103D300010631A464FF09043136008E0FB685A0185
:103D40007B68134403F510631A4600231360FB6875
:103D50005A017B68134403F510631A46002313616C
:103D6000FB685A017B68134403F510631A46FF236E
:103D70009360FB680133FB60FA69FB689A42C9D81B
:103D80000023FB6031E0FB685A017B68134403F5B4
:103D900030631B68002B0ADAFB685A017B68134406
:103DA00003F530631A464FF09043136008E0FB6858
:103DB0005A017B68134403F530631A4600231360ED
:103DC000FB685A017B68134403F530631A460023ED
:103DD0001361FB685A017B68134403F530631A468C
:103DE000FF239360FB680133FB60FA69FB689A422A
:103DF000C9D87B6803F500631A467B6803F5006346
:103E00001B6923F480731361BB6A012B17D17B6894
:103E100003F500631A46234B13637B6803F50063C5
:103E20001A467B6803F500631B6B43F4803343F051
:103E3000030313637B6803F500631B6BFB607B6804
:103E400000229A617B686FF080425A61BB6A002B46
:103E500005D17B689B6943F010027B689A617B689F
:103E60009A69114B13437A6893617B6B002B05D0E1
:103E70007B689B6943F008027B689A617B6C012B2D
:103E800007D17B689B6943F0804343F004037A6861
:103E90009361002318461037BD46BDE8804004B04A
:103EA000704700BF0001800000383C8080B485B0BE
:103EB00000AF786039600023FB603B689B0143F0F2
:103EC00020027B681A61FB680133FB60FB68094ACA
:103ED000934201D9032306E07B681B6903F02003AA
:103EE000002BF0D1002318461437BD465DF8047B43
:103EF000704700BF400D030080B485B000AF78600C
:103F00000023FB607B6810221A61FB680133FB60B1
:103F1000FB68094A934201D9032306E07B681B69C9
:103F200003F01003002BF0D1002318461437BD46D0
:103F30005DF8047B704700BF400D030080B483B080
:103F400000AF78600B46FB707B6803F50063194691
:103F50007B6803F500631A68FB7813430B6000234A
:103F600018460C37BD465DF8047B704780B485B0B9
:103F700000AF78600023FB737B6803F500639B68E8
:103F800003F00603002B02D10023FB731CE07B68C7
:103F900003F500639B6803F00603022B07D07B68E0
:103FA00003F500639B6803F00603062B02D103238D
:103FB000FB7309E07B6803F500639B6803F006036D
:103FC000042B01D10223FB73FB7B18461437BD463B
:103FD0005DF8047B704700BF80B483B000AF7860A9
:103FE00039603B685B78012B3ED17B6803F5006349
:103FF00019467B6803F50063DA693B681B7818464D
:10400000012383409BB21343CB613B681B785A0169
:104010007B68134403F510631B6803F40043002B13
:104020005CD13B681B785A017B68134403F510632D
:1040300018463B681B785A017B68134403F51063EC
:104040001A683B689B68C3F30A033968C978890416
:104050000B433968097889050B43134343F08053B8
:1040600043F40043036039E07B6803F500631946BD
:104070007B6803F50063DA693B681B781846012307
:1040800083401B041343CB613B681B785A017B6858
:10409000134403F530631B6803F40043002B1DD168
:1040A0003B681B785A017B68134403F5306318465C
:1040B0003B681B785A017B68134403F530631A6828
:1040C0003B689B68C3F30A033968C97889040B43CA
:1040D000134343F0805343F4004303600023184626
:1040E0000C37BD465DF8047B704700BF80B483B0D9
:1040F00000AF786039603B685B78012B35D17B6815
:1041000003F5006319467B6803F50063DA6B3B68CF
:104110001B781846012383409BB2DB431340CB63DB
:104120007B6803F5006319467B6803F50063DA6971
:104130003B681B781846012383409BB2DB43134046
:10414000CB613B681B785A017B68134403F510630D
:1041500019463B681B785A017B68134403F51063CA
:104160001B6823F400430B6034E07B6803F50063B5
:1041700019467B6803F50063DA6B3B681B781846C9
:10418000012383401B04DB431340CB637B6803F5AF
:10419000006319467B6803F50063DA693B681B78A6
:1041A0001846012383401B04DB431340CB613B686B
:1041B0001B785A017B68134403F5306319463B684A
:1041C0001B785A017B68134403F530631B6823F4A2
:1041D00000430B60002318460C37BD465DF8047B96
:1041E000704700BF80B588B002AFF860B960134671
:1041F000FB710023FB82BB685B78012B40F046819A
:10420000BB685B69002B3BD1BB681B785A01FB681C
:10421000134403F510631946BB681B785A01FB6809
:10422000134403F510631B6923F0FF5323F4C013F9
:104230000B61BB681B785A01FB68134403F51063DC
:104240001946BB681B785A01FB68134403F51063D9
:104250001B6943F400230B61BB681B785A01FB68A0
:10426000134403F510631946BB681B785A01FB68B9
:10427000134403F510631B69DB0CDB040B6186E060
:10428000BB681B785A01FB68134403F51063194699
:10429000BB681B785A01FB68134403F510631B6964
:1042A000DB0CDB040B61BB681B785A01FB68134411
:1042B00003F510631946BB681B785A01FB68134469
:1042C00003F510631B6923F0FF5323F4C0130B6144
:1042D000BB681B785A01FB68134403F5106318464A
:1042E000BB681B785A01FB68134403F510631A6915
:1042F000BB685969BB689B680B44591EBB689B68C7
:10430000B1FBF3F3D9048C4B0B4013430361BB683F
:104310001B785A01FB68134403F510631946BB6808
:104320001B785A01FB68134403F510631A69BB68D4
:104330005B69C3F3120313430B61BB68DB78012B8A
:1043400025D1BB681B785A01FB68134403F5106341
:104350001946BB681B785A01FB68134403F51063C8
:104360001B6923F0C0430B61BB681B785A01FB68D3
:10437000134403F510631946BB681B785A01FB68A8
:10438000134403F510631B6943F000530B61FB7981
:10439000012B0BD1BB681B785A01FB68134403F552
:1043A00010631A46BB681B69536116E0BB68DB7873
:1043B000012B12D0BB685B69002B0ED0FB6803F5A4
:1043C00000631946FB6803F500635A6BBB681B78F2
:1043D00018460123834013434B63BB68DB78012BF2
:1043E0002ED1FB6803F500639B6803F48073002BF8
:1043F00013D1BB681B785A01FB68134403F51063A3
:104400001946BB681B785A01FB68134403F5106317
:104410001B6843F000530B6012E0BB681B785A0125
:10442000FB68134403F510631946BB681B785A01F7
:10443000FB68134403F510631B6843F080530B6063
:10444000BB681B785A01FB68134403F510631946D7
:10445000BB681B785A01FB68134403F510631B68A3
:1044600043F004430B60BB68DB78012B40F0F58020
:10447000BB68D968BB681A78BB685B6998B2FB797E
:1044800000930346F86800F04DFAE6E0BB681B783D
:104490005A01FB68134403F530631946BB681B7867
:1044A0005A01FB68134403F530631B69DB0CDB0422
:1044B0000B61BB681B785A01FB68134403F530633A
:1044C0001946BB681B785A01FB68134403F5306337
:1044D0001B6923F0FF5323F4C0130B61BB685B69B6
:1044E000002B2BD1BB681B785A01FB68134403F5E2
:1044F00030631946BB681B785A01FB68134403F507
:1045000030631A69BB689B68C3F3120313430B61E2
:10451000BB681B785A01FB68134403F530631946E6
:10452000BB681B785A01FB68134403F530631B69B1
:1045300043F400230B613CE00000F81FBB685A699C
:10454000BB689B6813445A1EBB689B68B2FBF3F3BD
:10455000FB82BB681B785A01FB68134403F5306388
:104560001946BB681B785A01FB68134403F5306396
:104570001A69FB8ADB0418463A4B034013430B616C
:10458000BB681B785A01FB68134403F53063184677
:10459000BB681B785A01FB68134403F530631A6942
:1045A000BB689B68F98A01FB03F3C3F3120313434F
:1045B0000361FB79012B0AD1BB681B785A01FB68A8
:1045C000134403F530631A46BB68DB685361BB686C
:1045D000DB78012B2ED1FB6803F500639B6803F4A5
:1045E0008073002B13D1BB681B785A01FB681344FE
:1045F00003F530631946BB681B785A01FB68134406
:1046000003F530631B6843F000530B6012E0BB6896
:104610001B785A01FB68134403F530631946BB68E5
:104620001B785A01FB68134403F530631B6843F0A1
:1046300080530B60BB681B785A01FB68134403F579
:1046400030631946BB681B785A01FB68134403F5B5
:1046500030631B6843F004430B600023184618378F
:10466000BD4680BD0000F81F80B485B000AFF86083
:10467000B9601346FB71BB685B78012B40F0D180B9
:10468000BB685B69002B3BD1BB681B785A01FB6898
:10469000134403F510631946BB681B785A01FB6885
:1046A000134403F510631B6923F0FF5323F4C01375
:1046B0000B61BB681B785A01FB68134403F5106358
:1046C0001946BB681B785A01FB68134403F5106355
:1046D0001B6943F400230B61BB681B785A01FB681C
:1046E000134403F510631946BB681B785A01FB6835
:1046F000134403F510631B69DB0CDB040B615AE008
:10470000BB681B785A01FB68134403F51063194614
:10471000BB681B785A01FB68134403F510631B69DF
:10472000DB0CDB040B61BB681B785A01FB6813448C
:1047300003F510631946BB681B785A01FB681344E4
:1047400003F510631B6923F0FF5323F4C0130B61BF
:10475000BB685A69BB689B689A4203D9BB689A6870
:10476000BB685A61BB681B785A01FB68134403F5A8
:1047700010631946BB681B785A01FB68134403F5A4
:1047800010631B6943F400230B61BB681B785A015B
:10479000FB68134403F510631946BB681B785A0184
:1047A000FB68134403F510631A69BB685B69C3F3C4
:1047B000120313430B61FB79012B0BD1BB681B78F0
:1047C0005A01FB68134403F510631A46BB681B6962
:1047D000536112E0BB685B69002B0ED0FB6803F5E8
:1047E00000631946FB6803F500635A6BBB681B78CE
:1047F00018460123834013434B63BB681B785A015F
:10480000FB68134403F510631946BB681B785A0113
:10481000FB68134403F510631B6843F004430B600B
:1048200079E0BB681B785A01FB68134403F53063D9
:104830001946BB681B785A01FB68134403F53063C3
:104840001B69DB0CDB040B61BB681B785A01FB683E
:10485000134403F530631946BB681B785A01FB68A3
:10486000134403F530631B6923F0FF5323F4C01393
:104870000B61BB685B69002B03D0BB689A68BB689F
:104880005A61BB681B785A01FB68134403F5306317
:104890001946BB681B785A01FB68134403F5306363
:1048A0001B6943F400230B61BB681B785A01FB684A
:1048B000134403F530631946BB681B785A01FB6843
:1048C000134403F530631A69BB689B68C3F3120392
:1048D00013430B61FB79012B0AD1BB681B785A018A
:1048E000FB68134403F530631A46BB68DB68536109
:1048F000BB681B785A01FB68134403F53063194603
:10490000BB681B785A01FB68134403F530631B68CE
:1049100043F004430B60002318461437BD465DF88E
:10492000047B704780B487B000AFF860B96011466F
:104930001A460B46FB711346BB8000233B610023E4
:104940007B6197F82030002B1AD1BB8803339B087A
:104950003B6100237B610FE0FB791A03FB68134482
:1049600003F580531A46BB681B6813607B690133EB
:104970007B61BB680433BB607A693B699A42EBD3C5
:10498000002318461C37BD465DF8047B704700BF06
:1049900080B487B000AFF860B9601346FB80002395
:1049A0007B61FB8803339B083B6100237B610BE049
:1049B000FB6803F580531A68BB681A607B69013392
:1049C0007B61BB680433BB607A693B699A42EFD371
:1049D000BB6818461C37BD465DF8047B704700BFB6
:1049E00080B483B000AF786039603B685B78012B9E
:1049F00030D13B681B785A017B68134403F5106380
:104A00001B68002B12DB3B681B785A017B68134440
:104A100003F5106319463B681B785A017B68134401
:104A200003F510631B6823F080430B603B681B7821
:104A30005A017B68134403F5106319463B681B78E1
:104A40005A017B68134403F510631B6843F4001399
:104A50000B602FE03B681B785A017B68134403F519
:104A600030631B68002B12DB3B681B785A017B68A4
:104A7000134403F5306319463B681B785A017B6881
:104A8000134403F530631B6823F080430B603B68DD
:104A90001B785A017B68134403F5306319463B6861
:104AA0001B785A017B68134403F530631B6843F499
:104AB00000130B60002318460C37BD465DF8047BDD
:104AC000704700BF80B483B000AF786039603B6846
:104AD0005B78012B2ED13B681B785A017B6813440D
:104AE00003F5106319463B681B785A017B68134431
:104AF00003F510631B6823F400130B603B68DB783D
:104B0000032B03D03B68DB78022B41D13B681B7839
:104B10005A017B68134403F5106319463B681B7800
:104B20005A017B68134403F510631B6843F08053FC
:104B30000B602DE03B681B785A017B68134403F53A
:104B4000306319463B681B785A017B68134403F5B0
:104B500030631B6823F400130B603B68DB78032B86
:104B600003D03B68DB78022B12D13B681B785A01DB
:104B70007B68134403F5306319463B681B785A0180
:104B80007B68134403F530631B6843F080530B606C
:104B9000002318460C37BD465DF8047B704700BF04
:104BA00080B483B000AF78600B46FB707B6803F580
:104BB00000631A467B6803F500631B6823F4FE63F9
:104BC00013607B6803F5006319467B6803F5006397
:104BD0001A68FB781B0103F4FE6313430B60002388
:104BE00018460C37BD465DF8047B704780B582B02F
:104BF00000AF78607B6803F500631A467B6803F5B5
:104C000000635B6823F0020353600320FCF7BAF8EB
:104C1000002318460837BD4680BD00BF80B582B06E
:104C200000AF78607B6803F500631A467B6803F584
:104C300000635B6843F0020353600320FCF7A2F8B3
:104C4000002318460837BD4680BD00BF80B485B03C
:104C500000AF78600023FB607B685B69FB607B686A
:104C60009B69FA681340FB60FB6818461437BD4621
:104C70005DF8047B704700BF80B485B000AF7860FA
:104C80007B6803F500639B69FB607B6803F5006349
:104C9000DB69FA681340FB60FB681B0C184614378D
:104CA000BD465DF8047B704780B485B000AF786086
:104CB0007B6803F500639B69FB607B6803F5006319
:104CC000DB69FA681340FB60FB689BB21846143737
:104CD000BD465DF8047B704780B485B000AF786056
:104CE0000B46FB70FB785A017B68134403F5306375
:104CF0009B68FB607B6803F500635B69FA6813409F
:104D0000FB60FB6818461437BD465DF8047B7047AE
:104D100080B487B000AF78600B46FB707B6803F50A
:104D200000631B697B617B6803F500635B6B3B6120
:104D3000FB783A6922FA03F3DB01DBB27A691343A9
:104D40007B61FB785A017B68134403F510639A6812
:104D50007B691340FB60FB6818461C37BD465DF855
:104D6000047B704780B483B000AF78607B685B6978
:104D700003F0010318460C37BD465DF8047B70470D
:104D800080B483B000AF78607B6803F510631A4687
:104D90007B6803F510631B6823F4FF6323F00703AC
:104DA00013607B6803F500639B6803F00603042B24
:104DB0000AD17B6803F510631A467B6803F510631C
:104DC0001B6843F0030313607B6803F500631A4616
:104DD0007B6803F500635B6843F4807353600023D2
:104DE00018460C37BD465DF8047B704780B485B02B
:104DF00000AFF8600B467A60FB72FB6803F5306326
:104E00001A4600231361FB6803F530631A46FB68FA
:104E100003F530631B6943F400231361FB6803F55A
:104E200030631A46FB6803F530631B6943F01803CF
:104E30001361FB6803F530631A46FB6803F53063C2
:104E40001B6943F0C0431361FB7A012B0CD1FB6853
:104E500003F530631A467B685361FB6803F53063E2
:104E60001A464FF080231360002318461437BD46BE
:104E70005DF8047B704700BF80B485B000AF7860F8
:104E80000023FB60FB680133FB60FB68134A93421D
:104E900001D903231BE07B681B69002BF2DA002396
:104EA000FB607B681B6943F001027B681A61FB6849
:104EB0000133FB60FB68094A934201D9032306E0F2
:104EC0007B681B6903F00103002BF0D10023184617
:104ED0001437BD465DF8047B704700BF400D0300EA
:104EE0000FB480B582B000AF07F114033B603B689C
:104EF0003A6980210A4805F009FC78607B68002B3C
:104F000005DD7B681946064800F00CF878607B6880
:104F100018460837BD46BDE8804004B0704700BF62
:104F20002802002080B582B000AF7860396039680F
:104F3000786800F005F8034618460837BD4680BD7E
:104F4000B0B590B000AF786039607A683B681344C0
:104F50001B78002B0BD10423FB627B68BB62FC6ACD
:104F6000BD6A20462946ABBE04467C6235E03B68FC
:104F7000FB632FE0FB6B102B28BF10233B63002348
:104F8000BB630DE07B68197807F10C02BB6B13441F
:104F90000A461A70BB6B0133BB637B6801337B60CD
:104FA000BA6B3B6B9A42EDD307F10C02BB6B134417
:104FB00000221A7004237B6307F10C033B627C6BB5
:104FC0003D6A20462946ABBE0446FC61FA6B3B6B4A
:104FD000D31AFB63FB6B002BCCD13B6818464037E0
:104FE000BD46B0BD80B584B000AFF860B9607A60EE
:104FF0003B603448FFF774FFFB681B681946324872
:10500000FFF76EFFFB685B6819463048FFF768FFE3
:10501000FB689B6819462E48FFF762FFFB68DB6858
:1050200019462C48FFF75CFFFB681B6919462A48A4
:10503000FFF756FFFB685B6919462848FFF750FFEA
:10504000FB689B6919462648FFF74AFFFB68DB6946
:1050500019462448FFF744FF2348FFF741FFB9688A
:105060002248FFF73DFF224BDB6A19462148FFF734
:1050700037FF1F4B1B6B19461F48FFF731FF1C4BB7
:10508000DB6B19461D48FFF72BFFBB6803F080035D
:10509000002B03D079681A48FFF722FFBB6803F49E
:1050A0000043002B03D039681648FFF719FF164854
:1050B000FFF716FFB9691548FFF712FF00BF103759
:1050C000BD4680BDD4CF0008E4CF0008F4CF00086F
:1050D00004D0000814D0000824D0000834D0000800
:1050E00044D0000854D0000864D0000870D00008F4
:1050F00000ED00E080D0000890D00008A0D00008AB
:10510000B0D00008C0D00008D0D00008D8D0000827
:1051100080B485B000AF78600B467B807B689B696C
:10512000FB60FB681B887A889A4213D17B681B68F6
:10513000BB60BB68032B03D0042B03D000230AE021
:1051400000BF00E000BF7B689B699A1C7B689A6186
:10515000012300E0002318461437BD465DF8047BA8
:10516000704700BFDFF834D0002103E00C4B5B58E0
:10517000435004310B480C4B42189A42F6D30B4A69
:1051800002E0002342F8043B094B9A42F9D300F0B5
:1051900013F803F041FC00F045F8704700000120CF
:1051A00050D50008000000200C0200200C02002056
:1051B0005C330020FEE7000080B400AF164A164BB7
:1051C000D3F8883043F47003C2F88830134A134B85
:1051D0001B6843F001031360104B00229A600F4AD2
:1051E0000E4B1B6823F0847323F4803313600B4B46
:1051F0000B4A5A60094A094B1B6823F48023136049
:10520000064B0022DA60044B4FF000629A6000BF48
:10521000BD465DF8047B704700ED00E000380240B9
:1052200010300024B0B586B000AFFBF753FD00F09E
:105230001BF800F07FF800F085F9094B3C1D1D4676
:105240000FCD0FC42B6823603B1D0021184602F0D0
:10525000D7FC0246034B1A6002F0CAFCFEE700BF0F
:1052600028D10008142B002080B594B000AF002393
:10527000BB602D4A2C4B1B6C43F0805313642A4BAC
:105280001B6C03F08053BB60BB6800237B60274A24
:10529000264B1B6823F4404343F400431360234B25
:1052A0001B6803F440437B607B6801233B6201235E
:1052B0007B620223BB634FF48003FB6308233B64E0
:1052C0004FF4A8737B640423BB640723FB6407F1DA
:1052D00020031846FDF71EFF0F23FB6002233B61EE
:1052E00000237B614FF48053BB610023FB6107F116
:1052F0000C0302211846FEF7CDF9FEF7E5FB024646
:105300000B4BA3FB02239B091846FCF7D7FB042099
:10531000FCF7E0FB00220F214FF0FF30FCF78AFB87
:1053200000BF5037BD4680BD0038024000700040CD
:10533000D34D621080B58CB000AF0023BB617A4AB8
:10534000794B1B6B43F004031363774B1B6B03F028
:105350000403BB61BB6900237B61734A724B1B6B07
:1053600043F080031363704B1B6B03F080037B617E
:105370007B6900233B616C4A6B4B1B6B43F0010361
:105380001363694B1B6B03F001033B613B69002313
:10539000FB60654A644B1B6B43F002031363624B73
:1053A0001B6B03F00203FB60FB680023BB605E4ADB
:1053B0005D4B1B6B43F0080313635B4B1B6B03F0EC
:1053C0000803BB60BB6800237B60574A564B1B6BCE
:1053D00043F010031363544B1B6B03F010037B600B
:1053E0007B68002201215148FCF72CFE00224FF27D
:1053F00010014F48FCF726FE0123FB6101233B62AD
:1054000000237B620023BB6207F11C031946474857
:10541000FCF788FB0823FB6102233B6200237B62CD
:105420000023BB620523FB6207F11C0319463F48BA
:10543000FCF778FB0123FB613E4B3B6200237B6260
:1054400007F11C0319463C48FCF76CFB1023FB6179
:1054500002233B6200237B620023BB620623FB62C4
:1054600007F11C0319463448FCF75CFB4FF4A053CA
:10547000FB6102233B6200237B620023BB620523A6
:10548000FB6207F11C0319462C48FCF74BFB4FF25B
:105490001003FB6101233B6200237B620023BB629C
:1054A00007F11C0319462248FCF73CFB4FF4A453B8
:1054B000FB6102233B6200237B620023BB62062365
:1054C000FB6207F11C0319461848FCF72BFB20234D
:1054D000FB6100233B6200237B6207F11C0319463A
:1054E0001348FCF71FFB4FF41073FB6112233B6260
:1054F00001237B620023BB620423FB6207F11C03D0
:1055000019460E48FCF70EFB0223FB61094B3B6278
:1055100000237B6207F11C0319460948FCF702FBD4
:1055200000BF3037BD4680BD003802400008024051
:10553000000C024000001210000002400004024073
:105540000010024080B584B000AF1A4B1A4A1A60AE
:10555000184B4FF480325A60164B00229A60154B5C
:1055600001221A61134B00229A61124B00221A6227
:10557000104B0022DA620F4B0022DA600D4B012241
:10558000DA610C4B00221A630A4B01225A61094866
:10559000FBF70EFC10233B6001237B600023BB6004
:1055A0003B4619460348FBF7F5FE00BF1037BD46E2
:1055B00080BD00BF1C2B00200020014080B58AB0B8
:1055C00000AF78605348FFF78BFC00F01DF9002313
:1055D00087F8273003220021012002F067FC0246F1
:1055E0004D4B1A604FF000033B624FF47A73FB613E
:1055F00002F0E8FE0346FB60484B00221A60484B6D
:1056000093F8FC31032BFAD1464B1B68002B76D064
:105610004548FFF765FC4548FBF724FD44494348EE
:10562000FBF728FE0346002B5ED14048FBF7A4FEA3
:1056300007EE900AF8EE677AC7ED087AD7ED087A98
:105640009FED3C7A67EE877AC7ED087A97ED087A86
:10565000DFED396AC7EE267AC7ED087A97ED087A4A
:10566000DFED366AC7EE267AC7ED087AD7ED087AFD
:105670009FED337A77EEC77AC7ED087A97ED087A0F
:10568000DFED306AC7EE267AC7ED087AD7ED087AE3
:10569000B3EE097A77EE877AC7ED087AD7ED087A04
:1056A0009FED297A67EE877AFDEEE77A17EE903A5A
:1056B000BB61D7ED087A9FED247A67EE877AFDEE1D
:1056C000E77A07F1100317EE902A2049184604F0F4
:1056D000FFF802F077FE786107F110030221184607
:1056E00000F0C4F90346FB741048FBF783FD07F193
:1056F0000C034FF47A71184602F0F2FC7FE714486D
:10570000FFF7EEFB07F10C034FF47A71184602F035
:10571000E7FC74E73CD10008182B00208C2D0020FA
:10572000642B0020882D002054D100081C2B002061
:1057300040420F0000404E4500F07F4500007A4493
:105740005C8F423F0AD7233B0000C84270D100085B
:1057500074D1000880B483B000AF7860396000BFB6
:105760000C37BD465DF8047B704700BF80B500AFC5
:105770000320FCF73FF900220F214FF0FF30FCF728
:1057800059F900BF80BD00BF80B588B000AF786018
:105790007B681B68104A934219D10023BB600F4AF3
:1057A0000E4B5B6C43F4807353640C4B5B6C03F4E3
:1057B0008073BB60BB680223FB6003233B61002353
:1057C0007B6107F10C0319460548FCF7ABF900BFF4
:1057D0002037BD4680BD00BF002001400038024098
:1057E0000000024080B500AFFBF7B2FA02F034FAD5
:1057F00000BF80BD80B500AF0248FCF79DFD00BF33
:1058000080BD00BFA02D002080B500AF0022084958
:10581000084800F07BFC0849064800F0A3FC074953
:10582000044801F08DFD034800F0B6FC00BF80BDC8
:105830001C000020642B00205C00002004000020DD
:1058400080B500AF094B0A4A1A60084B1B6800225A
:105850000849184601F08CFD044B1B6806491846A0
:1058600001F0A0FD00235BB2184680BD942D0020FE
:10587000642B00209C2D0020982D002080B400AFC8
:1058800000235BB21846BD465DF8047B704700BF3D
:1058900080B483B000AF03463960FB711346BB8010
:1058A000FB79232B00F2A68001A252F823F000BF5F
:1058B000F5590008F5590008F5590008F559000890
:1058C000F5590008F5590008F5590008F559000880
:1058D000F5590008F5590008F5590008F559000870
:1058E000F5590008F5590008F5590008F559000860
:1058F000F5590008F5590008F5590008F559000850
:10590000F5590008F5590008F5590008F55900083F
:10591000F5590008F5590008F5590008F55900082F
:10592000F5590008F5590008F5590008F55900081F
:105930004159000885590008D9590008F55900084F
:105940003B681B781A463B6801331B781B021A43DD
:105950003B6802331B781B041A433B6803331B78F4
:105960001B0613431A46284B1A603B681A79264BCC
:105970001A713B685A79244B5A713B689A79224BC9
:105980009A7138E0204B1B68DAB23B681A703B68AA
:1059900001331D4A1268120AD2B21A703B680233F0
:1059A000194A1268120CD2B21A703B680333164AB5
:1059B0001268120ED2B21A703B680433124A12797E
:1059C0001A703B680533104A52791A703B680633E7
:1059D0000D4A92791A700EE03B685B8803F0010370
:1059E000002B03D0094B01221A6004E0074B002270
:1059F0001A6000E000BF00235BB218460C37BD46BA
:105A00005DF8047B704700BF14000020882D002043
:105A100080B582B000AF786039604FF480510E4895
:105A2000FCF73CFB0D4B1B687968184601F0BAFC8B
:105A30000A4B1B68184601F0F3FC79680848FFF729
:105A40004FFA084A0849786803F066FF00235BB202
:105A500018460837BD4680BD000C0240942D00203A
:105A600094D10008102B002098D1000880B584B094
:105A700000AF78600B467B804FF480410F48FCF705
:105A80000DFB0023FB730E4B1B687A887968184660
:105A900001F06EFC0346FB73FB7B002BFCD1084B33
:105AA0001B68184601F092FC0346FB73FB7B002B3E
:105AB000F5D1FB7B18461037BD4680BD000C024077
:105AC000942D002080B588B000AF78607B681B689B
:105AD000B3F1A04F39D14FF40073FB6000233B6159
